{
  "contractName": "Artemis",
  "abi": [
    {
      "inputs": [
        {
          "internalType": "address",
          "name": "_stakingWallet",
          "type": "address"
        },
        {
          "internalType": "address",
          "name": "_teamWallet",
          "type": "address"
        },
        {
          "internalType": "address",
          "name": "_developmentWallet",
          "type": "address"
        },
        {
          "internalType": "address",
          "name": "_marketingWallet",
          "type": "address"
        },
        {
          "internalType": "address",
          "name": "_partnershipIntegrationWallet",
          "type": "address"
        }
      ],
      "stateMutability": "nonpayable",
      "type": "constructor"
    },
    {
      "anonymous": false,
      "inputs": [
        {
          "indexed": true,
          "internalType": "address",
          "name": "owner",
          "type": "address"
        },
        {
          "indexed": true,
          "internalType": "address",
          "name": "spender",
          "type": "address"
        },
        {
          "indexed": false,
          "internalType": "uint256",
          "name": "value",
          "type": "uint256"
        }
      ],
      "name": "Approval",
      "type": "event"
    },
    {
      "anonymous": false,
      "inputs": [
        {
          "indexed": true,
          "internalType": "address",
          "name": "previousOwner",
          "type": "address"
        },
        {
          "indexed": true,
          "internalType": "address",
          "name": "newOwner",
          "type": "address"
        }
      ],
      "name": "OwnershipTransferred",
      "type": "event"
    },
    {
      "anonymous": false,
      "inputs": [
        {
          "indexed": true,
          "internalType": "address",
          "name": "from",
          "type": "address"
        },
        {
          "indexed": true,
          "internalType": "address",
          "name": "to",
          "type": "address"
        },
        {
          "indexed": false,
          "internalType": "uint256",
          "name": "value",
          "type": "uint256"
        }
      ],
      "name": "Transfer",
      "type": "event"
    },
    {
      "inputs": [],
      "name": "DEVELOPMENT_RESERVE",
      "outputs": [
        {
          "internalType": "uint256",
          "name": "",
          "type": "uint256"
        }
      ],
      "stateMutability": "view",
      "type": "function",
      "constant": true
    },
    {
      "inputs": [],
      "name": "MARKETING_AND_LISTING_RESERVE",
      "outputs": [
        {
          "internalType": "uint256",
          "name": "",
          "type": "uint256"
        }
      ],
      "stateMutability": "view",
      "type": "function",
      "constant": true
    },
    {
      "inputs": [],
      "name": "MINTABLE_SUPPLY",
      "outputs": [
        {
          "internalType": "uint256",
          "name": "",
          "type": "uint256"
        }
      ],
      "stateMutability": "view",
      "type": "function",
      "constant": true
    },
    {
      "inputs": [],
      "name": "PARTNERSHIP_INTERGRATION_RESERVE",
      "outputs": [
        {
          "internalType": "uint256",
          "name": "",
          "type": "uint256"
        }
      ],
      "stateMutability": "view",
      "type": "function",
      "constant": true
    },
    {
      "inputs": [],
      "name": "STAKING_RESERVE",
      "outputs": [
        {
          "internalType": "uint256",
          "name": "",
          "type": "uint256"
        }
      ],
      "stateMutability": "view",
      "type": "function",
      "constant": true
    },
    {
      "inputs": [],
      "name": "TEAM_AND_ADVISOR_RESERVE",
      "outputs": [
        {
          "internalType": "uint256",
          "name": "",
          "type": "uint256"
        }
      ],
      "stateMutability": "view",
      "type": "function",
      "constant": true
    },
    {
      "inputs": [],
      "name": "TOTAL_MINTABLE_MINTED",
      "outputs": [
        {
          "internalType": "uint256",
          "name": "",
          "type": "uint256"
        }
      ],
      "stateMutability": "view",
      "type": "function",
      "constant": true
    },
    {
      "inputs": [
        {
          "internalType": "address",
          "name": "owner",
          "type": "address"
        },
        {
          "internalType": "address",
          "name": "spender",
          "type": "address"
        }
      ],
      "name": "allowance",
      "outputs": [
        {
          "internalType": "uint256",
          "name": "",
          "type": "uint256"
        }
      ],
      "stateMutability": "view",
      "type": "function",
      "constant": true
    },
    {
      "inputs": [
        {
          "internalType": "address",
          "name": "spender",
          "type": "address"
        },
        {
          "internalType": "uint256",
          "name": "amount",
          "type": "uint256"
        }
      ],
      "name": "approve",
      "outputs": [
        {
          "internalType": "bool",
          "name": "",
          "type": "bool"
        }
      ],
      "stateMutability": "nonpayable",
      "type": "function"
    },
    {
      "inputs": [
        {
          "internalType": "address",
          "name": "account",
          "type": "address"
        }
      ],
      "name": "balanceOf",
      "outputs": [
        {
          "internalType": "uint256",
          "name": "",
          "type": "uint256"
        }
      ],
      "stateMutability": "view",
      "type": "function",
      "constant": true
    },
    {
      "inputs": [],
      "name": "decimals",
      "outputs": [
        {
          "internalType": "uint8",
          "name": "",
          "type": "uint8"
        }
      ],
      "stateMutability": "view",
      "type": "function",
      "constant": true
    },
    {
      "inputs": [
        {
          "internalType": "address",
          "name": "spender",
          "type": "address"
        },
        {
          "internalType": "uint256",
          "name": "subtractedValue",
          "type": "uint256"
        }
      ],
      "name": "decreaseAllowance",
      "outputs": [
        {
          "internalType": "bool",
          "name": "",
          "type": "bool"
        }
      ],
      "stateMutability": "nonpayable",
      "type": "function"
    },
    {
      "inputs": [],
      "name": "developmentWallet",
      "outputs": [
        {
          "internalType": "address",
          "name": "",
          "type": "address"
        }
      ],
      "stateMutability": "view",
      "type": "function",
      "constant": true
    },
    {
      "inputs": [
        {
          "internalType": "address",
          "name": "spender",
          "type": "address"
        },
        {
          "internalType": "uint256",
          "name": "addedValue",
          "type": "uint256"
        }
      ],
      "name": "increaseAllowance",
      "outputs": [
        {
          "internalType": "bool",
          "name": "",
          "type": "bool"
        }
      ],
      "stateMutability": "nonpayable",
      "type": "function"
    },
    {
      "inputs": [],
      "name": "last_development_withdrawal_time",
      "outputs": [
        {
          "internalType": "uint256",
          "name": "",
          "type": "uint256"
        }
      ],
      "stateMutability": "view",
      "type": "function",
      "constant": true
    },
    {
      "inputs": [],
      "name": "marketingWallet",
      "outputs": [
        {
          "internalType": "address",
          "name": "",
          "type": "address"
        }
      ],
      "stateMutability": "view",
      "type": "function",
      "constant": true
    },
    {
      "inputs": [],
      "name": "name",
      "outputs": [
        {
          "internalType": "string",
          "name": "",
          "type": "string"
        }
      ],
      "stateMutability": "view",
      "type": "function",
      "constant": true
    },
    {
      "inputs": [],
      "name": "owner",
      "outputs": [
        {
          "internalType": "address",
          "name": "",
          "type": "address"
        }
      ],
      "stateMutability": "view",
      "type": "function",
      "constant": true
    },
    {
      "inputs": [],
      "name": "partnershipIntegrationWallet",
      "outputs": [
        {
          "internalType": "address",
          "name": "",
          "type": "address"
        }
      ],
      "stateMutability": "view",
      "type": "function",
      "constant": true
    },
    {
      "inputs": [],
      "name": "renounceOwnership",
      "outputs": [],
      "stateMutability": "nonpayable",
      "type": "function"
    },
    {
      "inputs": [],
      "name": "stakingWallet",
      "outputs": [
        {
          "internalType": "address",
          "name": "",
          "type": "address"
        }
      ],
      "stateMutability": "view",
      "type": "function",
      "constant": true
    },
    {
      "inputs": [],
      "name": "symbol",
      "outputs": [
        {
          "internalType": "string",
          "name": "",
          "type": "string"
        }
      ],
      "stateMutability": "view",
      "type": "function",
      "constant": true
    },
    {
      "inputs": [],
      "name": "teamWallet",
      "outputs": [
        {
          "internalType": "address",
          "name": "",
          "type": "address"
        }
      ],
      "stateMutability": "view",
      "type": "function",
      "constant": true
    },
    {
      "inputs": [],
      "name": "totalSupply",
      "outputs": [
        {
          "internalType": "uint256",
          "name": "",
          "type": "uint256"
        }
      ],
      "stateMutability": "view",
      "type": "function",
      "constant": true
    },
    {
      "inputs": [
        {
          "internalType": "address",
          "name": "recipient",
          "type": "address"
        },
        {
          "internalType": "uint256",
          "name": "amount",
          "type": "uint256"
        }
      ],
      "name": "transfer",
      "outputs": [
        {
          "internalType": "bool",
          "name": "",
          "type": "bool"
        }
      ],
      "stateMutability": "nonpayable",
      "type": "function"
    },
    {
      "inputs": [
        {
          "internalType": "address",
          "name": "sender",
          "type": "address"
        },
        {
          "internalType": "address",
          "name": "recipient",
          "type": "address"
        },
        {
          "internalType": "uint256",
          "name": "amount",
          "type": "uint256"
        }
      ],
      "name": "transferFrom",
      "outputs": [
        {
          "internalType": "bool",
          "name": "",
          "type": "bool"
        }
      ],
      "stateMutability": "nonpayable",
      "type": "function"
    },
    {
      "inputs": [
        {
          "internalType": "address",
          "name": "newOwner",
          "type": "address"
        }
      ],
      "name": "transferOwnership",
      "outputs": [],
      "stateMutability": "nonpayable",
      "type": "function"
    },
    {
      "inputs": [],
      "name": "claimTeamTokens",
      "outputs": [],
      "stateMutability": "nonpayable",
      "type": "function"
    },
    {
      "inputs": [],
      "name": "claimDevelopmentTokens",
      "outputs": [],
      "stateMutability": "nonpayable",
      "type": "function"
    },
    {
      "inputs": [],
      "name": "claimMarketingTokens",
      "outputs": [],
      "stateMutability": "nonpayable",
      "type": "function"
    },
    {
      "inputs": [],
      "name": "claimPartnershipAndIntegrationTokens",
      "outputs": [],
      "stateMutability": "nonpayable",
      "type": "function"
    },
    {
      "inputs": [],
      "name": "claimStakingTokens",
      "outputs": [],
      "stateMutability": "nonpayable",
      "type": "function"
    },
    {
      "inputs": [
        {
          "internalType": "address",
          "name": "account",
          "type": "address"
        },
        {
          "internalType": "uint256",
          "name": "amount",
          "type": "uint256"
        }
      ],
      "name": "mint",
      "outputs": [],
      "stateMutability": "nonpayable",
      "type": "function"
    },
    {
      "inputs": [
        {
          "internalType": "address",
          "name": "account",
          "type": "address"
        },
        {
          "internalType": "uint256",
          "name": "amount",
          "type": "uint256"
        }
      ],
      "name": "burn",
      "outputs": [],
      "stateMutability": "nonpayable",
      "type": "function"
    },
    {
      "inputs": [
        {
          "internalType": "uint256",
          "name": "tokenAmount",
          "type": "uint256"
        }
      ],
      "name": "recoverERC20",
      "outputs": [],
      "stateMutability": "nonpayable",
      "type": "function"
    }
  ],
  "bytecode": "0x60806040526a0161a2e1a398ca47c000006008556932d26d12e980b6000000600955692a5a058fc295ed000000600a556954b40b1f852bda000000600b556000600c556967c2f4069cbc1e400000600d553480156200005d57600080fd5b50604051620035be380380620035be83398181016040528101906200008391906200064d565b6040518060400160405280600e81526020017f417274656d697320566973696f6e0000000000000000000000000000000000008152506040518060400160405280600381526020017f41525600000000000000000000000000000000000000000000000000000000008152506000620001016200057e60201b60201c565b9050806000806101000a81548173ffffffffffffffffffffffffffffffffffffffff021916908373ffffffffffffffffffffffffffffffffffffffff1602179055508073ffffffffffffffffffffffffffffffffffffffff16600073ffffffffffffffffffffffffffffffffffffffff167f8be0079c531659141344cd1fd0a4f28419497f9722a3daafe3b4186f6b6457e060405160405180910390a3508160049080519060200190620001b792919062000586565b508060059080519060200190620001d092919062000586565b506012600660006101000a81548160ff021916908360ff1602179055505050600073ffffffffffffffffffffffffffffffffffffffff168573ffffffffffffffffffffffffffffffffffffffff16141562000262576040517f08c379a00000000000000000000000000000000000000000000000000000000081526004016200025990620006f6565b60405180910390fd5b600073ffffffffffffffffffffffffffffffffffffffff168473ffffffffffffffffffffffffffffffffffffffff161415620002d5576040517f08c379a0000000000000000000000000000000000000000000000000000000008152600401620002cc90620006f6565b60405180910390fd5b600073ffffffffffffffffffffffffffffffffffffffff168373ffffffffffffffffffffffffffffffffffffffff16141562000348576040517f08c379a00000000000000000000000000000000000000000000000000000000081526004016200033f90620006f6565b60405180910390fd5b600073ffffffffffffffffffffffffffffffffffffffff168273ffffffffffffffffffffffffffffffffffffffff161415620003bb576040517f08c379a0000000000000000000000000000000000000000000000000000000008152600401620003b290620006f6565b60405180910390fd5b600073ffffffffffffffffffffffffffffffffffffffff168173ffffffffffffffffffffffffffffffffffffffff1614156200042e576040517f08c379a00000000000000000000000000000000000000000000000000000000081526004016200042590620006f6565b60405180910390fd5b84600e60006101000a81548173ffffffffffffffffffffffffffffffffffffffff021916908373ffffffffffffffffffffffffffffffffffffffff16021790555083600f60006101000a81548173ffffffffffffffffffffffffffffffffffffffff021916908373ffffffffffffffffffffffffffffffffffffffff16021790555082601060006101000a81548173ffffffffffffffffffffffffffffffffffffffff021916908373ffffffffffffffffffffffffffffffffffffffff16021790555081601160006101000a81548173ffffffffffffffffffffffffffffffffffffffff021916908373ffffffffffffffffffffffffffffffffffffffff16021790555080601260006101000a81548173ffffffffffffffffffffffffffffffffffffffff021916908373ffffffffffffffffffffffffffffffffffffffff160217905550505050505062000805565b600033905090565b82805462000594906200075d565b90600052602060002090601f016020900481019282620005b8576000855562000604565b82601f10620005d357805160ff191683800117855562000604565b8280016001018555821562000604579182015b8281111562000603578251825591602001919060010190620005e6565b5b50905062000613919062000617565b5090565b5b808211156200063257600081600090555060010162000618565b5090565b6000815190506200064781620007eb565b92915050565b600080600080600060a086880312156200066657600080fd5b6000620006768882890162000636565b9550506020620006898882890162000636565b94505060406200069c8882890162000636565b9350506060620006af8882890162000636565b9250506080620006c28882890162000636565b9150509295509295909350565b6000620006de60188362000718565b9150620006eb82620007c2565b602082019050919050565b600060208201905081810360008301526200071181620006cf565b9050919050565b600082825260208201905092915050565b600062000736826200073d565b9050919050565b600073ffffffffffffffffffffffffffffffffffffffff82169050919050565b600060028204905060018216806200077657607f821691505b602082108114156200078d576200078c62000793565b5b50919050565b7f4e487b7100000000000000000000000000000000000000000000000000000000600052602260045260246000fd5b7f5a65726f2041646472657373206e6f7420616c6c6f7765640000000000000000600082015250565b620007f68162000729565b81146200080257600080fd5b50565b612da980620008156000396000f3fe608060405234801561001057600080fd5b50600436106102115760003560e01c806375f0a87411610125578063c04a5414116100ad578063dfc2c53c1161007c578063dfc2c53c1461059a578063e81945ad146105b8578063f0153af9146105d6578063f2fde38b146105f4578063ffa356911461061057610211565b8063c04a541414610524578063cea4e87514610542578063d452067814610560578063dd62ed3e1461056a57610211565b806395d89b41116100f457806395d89b41146104805780639dc29fac1461049e578063a30542c5146104ba578063a457c2d7146104c4578063a9059cbb146104f457610211565b806375f0a8741461041e5780638da5cb5b1461043c5780638e8eb0c51461045a5780638f135b3a1461046457610211565b80632af5356a116101a85780635992704411610177578063599270441461039e5780636b7b9a94146103bc5780636e686a7d146103da57806370a08231146103e4578063715018a61461041457610211565b80632af5356a1461032a578063313ce56714610334578063395093511461035257806340c10f191461038257610211565b8063165b5bc2116101e4578063165b5bc2146102a057806318160ddd146102be57806323b872dd146102dc57806325558e5b1461030c57610211565b806306ee6ad81461021657806306fdde0314610234578063095ea7b31461025257806314e6e7d514610282575b600080fd5b61021e61062e565b60405161022b9190612462565b60405180910390f35b61023c610654565b60405161024991906124c1565b60405180910390f35b61026c60048036038101906102679190612129565b6106e6565b60405161027991906124a6565b60405180910390f35b61028a610704565b60405161029791906126c3565b60405180910390f35b6102a861070a565b6040516102b59190612462565b60405180910390f35b6102c6610730565b6040516102d391906126c3565b60405180910390f35b6102f660048036038101906102f191906120da565b61073a565b60405161030391906124a6565b60405180910390f35b610314610813565b60405161032191906126c3565b60405180910390f35b610332610819565b005b61033c610995565b60405161034991906126de565b60405180910390f35b61036c60048036038101906103679190612129565b6109ac565b60405161037991906124a6565b60405180910390f35b61039c60048036038101906103979190612129565b610a5f565b005b6103a6610b66565b6040516103b39190612462565b60405180910390f35b6103c4610b8c565b6040516103d191906126c3565b60405180910390f35b6103e2610b92565b005b6103fe60048036038101906103f99190612075565b610c5a565b60405161040b91906126c3565b60405180910390f35b61041c610ca3565b005b610426610ddd565b6040516104339190612462565b60405180910390f35b610444610e03565b6040516104519190612462565b60405180910390f35b610462610e2c565b005b61047e6004803603810190610479919061218e565b610ef4565b005b6104886110d3565b60405161049591906124c1565b60405180910390f35b6104b860048036038101906104b39190612129565b611165565b005b6104c26111ef565b005b6104de60048036038101906104d99190612129565b6112b7565b6040516104eb91906124a6565b60405180910390f35b61050e60048036038101906105099190612129565b611384565b60405161051b91906124a6565b60405180910390f35b61052c6113a2565b6040516105399190612462565b60405180910390f35b61054a6113c8565b60405161055791906126c3565b60405180910390f35b6105686113ce565b005b610584600480360381019061057f919061209e565b611496565b60405161059191906126c3565b60405180910390f35b6105a261151d565b6040516105af91906126c3565b60405180910390f35b6105c061152c565b6040516105cd91906126c3565b60405180910390f35b6105de611532565b6040516105eb91906126c3565b60405180910390f35b61060e60048036038101906106099190612075565b611538565b005b6106186116e1565b60405161062591906126c3565b60405180910390f35b600e60009054906101000a900473ffffffffffffffffffffffffffffffffffffffff1681565b60606004805461066390612858565b80601f016020809104026020016040519081016040528092919081815260200182805461068f90612858565b80156106dc5780601f106106b1576101008083540402835291602001916106dc565b820191906000526020600020905b8154815290600101906020018083116106bf57829003601f168201915b5050505050905090565b60006106fa6106f36116e7565b84846116ef565b6001905092915050565b600c5481565b601260009054906101000a900473ffffffffffffffffffffffffffffffffffffffff1681565b6000600354905090565b60006107478484846118ba565b610808846107536116e7565b61080385604051806060016040528060288152602001612d2760289139600260008b73ffffffffffffffffffffffffffffffffffffffff1673ffffffffffffffffffffffffffffffffffffffff16815260200190815260200160002060006107b96116e7565b73ffffffffffffffffffffffffffffffffffffffff1673ffffffffffffffffffffffffffffffffffffffff16815260200190815260200160002054611b539092919063ffffffff16565b6116ef565b600190509392505050565b60075481565b610821611bb1565b610860576040517f08c379a0000000000000000000000000000000000000000000000000000000008152600401610857906125a3565b60405180910390fd5b600f60009054906101000a900473ffffffffffffffffffffffffffffffffffffffff1673ffffffffffffffffffffffffffffffffffffffff163373ffffffffffffffffffffffffffffffffffffffff16146108f0576040517f08c379a00000000000000000000000000000000000000000000000000000000081526004016108e790612623565b60405180910390fd5b600060095411610935576040517f08c379a000000000000000000000000000000000000000000000000000000000815260040161092c90612683565b60405180910390fd5b600069043c33c19375648000009050610970600f60009054906101000a900473ffffffffffffffffffffffffffffffffffffffff1682611bee565b4260078190555061098c81600954611d8490919063ffffffff16565b60098190555050565b6000600660009054906101000a900460ff16905090565b6000610a556109b96116e7565b84610a5085600260006109ca6116e7565b73ffffffffffffffffffffffffffffffffffffffff1673ffffffffffffffffffffffffffffffffffffffff16815260200190815260200160002060008973ffffffffffffffffffffffffffffffffffffffff1673ffffffffffffffffffffffffffffffffffffffff16815260200190815260200160002054611ddd90919063ffffffff16565b6116ef565b6001905092915050565b610a676116e7565b73ffffffffffffffffffffffffffffffffffffffff16610a85610e03565b73ffffffffffffffffffffffffffffffffffffffff1614610adb576040517f08c379a0000000000000000000000000000000000000000000000000000000008152600401610ad2906125e3565b60405180910390fd5b6a05ca4ec2a79a7f67000000610afc82600c54611ddd90919063ffffffff16565b1115610b3d576040517f08c379a0000000000000000000000000000000000000000000000000000000008152600401610b3490612503565b60405180910390fd5b610b478282611bee565b610b5c81600c54611ddd90919063ffffffff16565b600c819055505050565b600f60009054906101000a900473ffffffffffffffffffffffffffffffffffffffff1681565b600a5481565b601160009054906101000a900473ffffffffffffffffffffffffffffffffffffffff1673ffffffffffffffffffffffffffffffffffffffff163373ffffffffffffffffffffffffffffffffffffffff1614610c22576040517f08c379a0000000000000000000000000000000000000000000000000000000008152600401610c1990612623565b60405180910390fd5b610c50601160009054906101000a900473ffffffffffffffffffffffffffffffffffffffff16600b54611bee565b6000600b81905550565b6000600160008373ffffffffffffffffffffffffffffffffffffffff1673ffffffffffffffffffffffffffffffffffffffff168152602001908152602001600020549050919050565b610cab6116e7565b73ffffffffffffffffffffffffffffffffffffffff16610cc9610e03565b73ffffffffffffffffffffffffffffffffffffffff1614610d1f576040517f08c379a0000000000000000000000000000000000000000000000000000000008152600401610d16906125e3565b60405180910390fd5b600073ffffffffffffffffffffffffffffffffffffffff1660008054906101000a900473ffffffffffffffffffffffffffffffffffffffff1673ffffffffffffffffffffffffffffffffffffffff167f8be0079c531659141344cd1fd0a4f28419497f9722a3daafe3b4186f6b6457e060405160405180910390a360008060006101000a81548173ffffffffffffffffffffffffffffffffffffffff021916908373ffffffffffffffffffffffffffffffffffffffff160217905550565b601160009054906101000a900473ffffffffffffffffffffffffffffffffffffffff1681565b60008060009054906101000a900473ffffffffffffffffffffffffffffffffffffffff16905090565b600e60009054906101000a900473ffffffffffffffffffffffffffffffffffffffff1673ffffffffffffffffffffffffffffffffffffffff163373ffffffffffffffffffffffffffffffffffffffff1614610ebc576040517f08c379a0000000000000000000000000000000000000000000000000000000008152600401610eb390612623565b60405180910390fd5b610eea600e60009054906101000a900473ffffffffffffffffffffffffffffffffffffffff16600854611bee565b6000600881905550565b610efc6116e7565b73ffffffffffffffffffffffffffffffffffffffff16610f1a610e03565b73ffffffffffffffffffffffffffffffffffffffff1614610f70576040517f08c379a0000000000000000000000000000000000000000000000000000000008152600401610f67906125e3565b60405180910390fd5b803073ffffffffffffffffffffffffffffffffffffffff166370a08231306040518263ffffffff1660e01b8152600401610faa9190612462565b60206040518083038186803b158015610fc257600080fd5b505afa158015610fd6573d6000803e3d6000fd5b505050506040513d601f19601f82011682018060405250810190610ffa91906121b7565b101561103b576040517f08c379a0000000000000000000000000000000000000000000000000000000008152600401611032906125c3565b60405180910390fd5b3073ffffffffffffffffffffffffffffffffffffffff1663a9059cbb61105f610e03565b836040518363ffffffff1660e01b815260040161107d92919061247d565b602060405180830381600087803b15801561109757600080fd5b505af11580156110ab573d6000803e3d6000fd5b505050506040513d601f19601f820116820180604052508101906110cf9190612165565b5050565b6060600580546110e290612858565b80601f016020809104026020016040519081016040528092919081815260200182805461110e90612858565b801561115b5780601f106111305761010080835404028352916020019161115b565b820191906000526020600020905b81548152906001019060200180831161113e57829003601f168201915b5050505050905090565b61116d6116e7565b73ffffffffffffffffffffffffffffffffffffffff1661118b610e03565b73ffffffffffffffffffffffffffffffffffffffff16146111e1576040517f08c379a00000000000000000000000000000000000000000000000000000000081526004016111d8906125e3565b60405180910390fd5b6111eb8282611e3b565b5050565b601260009054906101000a900473ffffffffffffffffffffffffffffffffffffffff1673ffffffffffffffffffffffffffffffffffffffff163373ffffffffffffffffffffffffffffffffffffffff161461127f576040517f08c379a000000000000000000000000000000000000000000000000000000000815260040161127690612623565b60405180910390fd5b6112ad601260009054906101000a900473ffffffffffffffffffffffffffffffffffffffff16600d54611bee565b6000600d81905550565b600061137a6112c46116e7565b8461137585604051806060016040528060258152602001612d4f60259139600260006112ee6116e7565b73ffffffffffffffffffffffffffffffffffffffff1673ffffffffffffffffffffffffffffffffffffffff16815260200190815260200160002060008a73ffffffffffffffffffffffffffffffffffffffff1673ffffffffffffffffffffffffffffffffffffffff16815260200190815260200160002054611b539092919063ffffffff16565b6116ef565b6001905092915050565b60006113986113916116e7565b84846118ba565b6001905092915050565b601060009054906101000a900473ffffffffffffffffffffffffffffffffffffffff1681565b600d5481565b601060009054906101000a900473ffffffffffffffffffffffffffffffffffffffff1673ffffffffffffffffffffffffffffffffffffffff163373ffffffffffffffffffffffffffffffffffffffff161461145e576040517f08c379a000000000000000000000000000000000000000000000000000000000815260040161145590612623565b60405180910390fd5b61148c601060009054906101000a900473ffffffffffffffffffffffffffffffffffffffff16600a54611bee565b6000600a81905550565b6000600260008473ffffffffffffffffffffffffffffffffffffffff1673ffffffffffffffffffffffffffffffffffffffff16815260200190815260200160002060008373ffffffffffffffffffffffffffffffffffffffff1673ffffffffffffffffffffffffffffffffffffffff16815260200190815260200160002054905092915050565b6a05ca4ec2a79a7f6700000081565b600b5481565b60095481565b6115406116e7565b73ffffffffffffffffffffffffffffffffffffffff1661155e610e03565b73ffffffffffffffffffffffffffffffffffffffff16146115b4576040517f08c379a00000000000000000000000000000000000000000000000000000000081526004016115ab906125e3565b60405180910390fd5b600073ffffffffffffffffffffffffffffffffffffffff168173ffffffffffffffffffffffffffffffffffffffff161415611624576040517f08c379a000000000000000000000000000000000000000000000000000000000815260040161161b90612523565b60405180910390fd5b8073ffffffffffffffffffffffffffffffffffffffff1660008054906101000a900473ffffffffffffffffffffffffffffffffffffffff1673ffffffffffffffffffffffffffffffffffffffff167f8be0079c531659141344cd1fd0a4f28419497f9722a3daafe3b4186f6b6457e060405160405180910390a3806000806101000a81548173ffffffffffffffffffffffffffffffffffffffff021916908373ffffffffffffffffffffffffffffffffffffffff16021790555050565b60085481565b600033905090565b600073ffffffffffffffffffffffffffffffffffffffff168373ffffffffffffffffffffffffffffffffffffffff16141561175f576040517f08c379a000000000000000000000000000000000000000000000000000000000815260040161175690612663565b60405180910390fd5b600073ffffffffffffffffffffffffffffffffffffffff168273ffffffffffffffffffffffffffffffffffffffff1614156117cf576040517f08c379a00000000000000000000000000000000000000000000000000000000081526004016117c690612543565b60405180910390fd5b80600260008573ffffffffffffffffffffffffffffffffffffffff1673ffffffffffffffffffffffffffffffffffffffff16815260200190815260200160002060008473ffffffffffffffffffffffffffffffffffffffff1673ffffffffffffffffffffffffffffffffffffffff168152602001908152602001600020819055508173ffffffffffffffffffffffffffffffffffffffff168373ffffffffffffffffffffffffffffffffffffffff167f8c5be1e5ebec7d5bd14f71427d1e84f3dd0314c0f7b2291e5b200ac8c7c3b925836040516118ad91906126c3565b60405180910390a3505050565b600073ffffffffffffffffffffffffffffffffffffffff168373ffffffffffffffffffffffffffffffffffffffff16141561192a576040517f08c379a000000000000000000000000000000000000000000000000000000000815260040161192190612643565b60405180910390fd5b600073ffffffffffffffffffffffffffffffffffffffff168273ffffffffffffffffffffffffffffffffffffffff16141561199a576040517f08c379a0000000000000000000000000000000000000000000000000000000008152600401611991906124e3565b60405180910390fd5b6119a5838383611feb565b611a1181604051806060016040528060268152602001612d0160269139600160008773ffffffffffffffffffffffffffffffffffffffff1673ffffffffffffffffffffffffffffffffffffffff16815260200190815260200160002054611b539092919063ffffffff16565b600160008573ffffffffffffffffffffffffffffffffffffffff1673ffffffffffffffffffffffffffffffffffffffff16815260200190815260200160002081905550611aa681600160008573ffffffffffffffffffffffffffffffffffffffff1673ffffffffffffffffffffffffffffffffffffffff16815260200190815260200160002054611ddd90919063ffffffff16565b600160008473ffffffffffffffffffffffffffffffffffffffff1673ffffffffffffffffffffffffffffffffffffffff168152602001908152602001600020819055508173ffffffffffffffffffffffffffffffffffffffff168373ffffffffffffffffffffffffffffffffffffffff167fddf252ad1be2c89b69c2b068fc378daa952ba7f163c4a11628f55a4df523b3ef83604051611b4691906126c3565b60405180910390a3505050565b6000838311158290611b9b576040517f08c379a0000000000000000000000000000000000000000000000000000000008152600401611b9291906124c1565b60405180910390fd5b508284611ba8919061279c565b90509392505050565b6000806007541415611bc65760019050611beb565b6000611bd460075442611ff0565b9050601e811115611be9576001915050611beb565b505b90565b600073ffffffffffffffffffffffffffffffffffffffff168273ffffffffffffffffffffffffffffffffffffffff161415611c5e576040517f08c379a0000000000000000000000000000000000000000000000000000000008152600401611c55906126a3565b60405180910390fd5b611c6a60008383611feb565b611c7f81600354611ddd90919063ffffffff16565b600381905550611cd781600160008573ffffffffffffffffffffffffffffffffffffffff1673ffffffffffffffffffffffffffffffffffffffff16815260200190815260200160002054611ddd90919063ffffffff16565b600160008473ffffffffffffffffffffffffffffffffffffffff1673ffffffffffffffffffffffffffffffffffffffff168152602001908152602001600020819055508173ffffffffffffffffffffffffffffffffffffffff16600073ffffffffffffffffffffffffffffffffffffffff167fddf252ad1be2c89b69c2b068fc378daa952ba7f163c4a11628f55a4df523b3ef83604051611d7891906126c3565b60405180910390a35050565b600082821115611dc9576040517f08c379a0000000000000000000000000000000000000000000000000000000008152600401611dc090612583565b60405180910390fd5b8183611dd5919061279c565b905092915050565b6000808284611dec9190612715565b905083811015611e31576040517f08c379a0000000000000000000000000000000000000000000000000000000008152600401611e2890612563565b60405180910390fd5b8091505092915050565b600073ffffffffffffffffffffffffffffffffffffffff168273ffffffffffffffffffffffffffffffffffffffff161415611eab576040517f08c379a0000000000000000000000000000000000000000000000000000000008152600401611ea290612603565b60405180910390fd5b611eb782600083611feb565b611f2381604051806060016040528060228152602001612cdf60229139600160008673ffffffffffffffffffffffffffffffffffffffff1673ffffffffffffffffffffffffffffffffffffffff16815260200190815260200160002054611b539092919063ffffffff16565b600160008473ffffffffffffffffffffffffffffffffffffffff1673ffffffffffffffffffffffffffffffffffffffff16815260200190815260200160002081905550611f7b81600354611d8490919063ffffffff16565b600381905550600073ffffffffffffffffffffffffffffffffffffffff168273ffffffffffffffffffffffffffffffffffffffff167fddf252ad1be2c89b69c2b068fc378daa952ba7f163c4a11628f55a4df523b3ef83604051611fdf91906126c3565b60405180910390a35050565b505050565b600081831115611fff57600080fd5b62015180838361200f919061279c565b612019919061276b565b905092915050565b60008135905061203081612c99565b92915050565b60008151905061204581612cb0565b92915050565b60008135905061205a81612cc7565b92915050565b60008151905061206f81612cc7565b92915050565b60006020828403121561208757600080fd5b600061209584828501612021565b91505092915050565b600080604083850312156120b157600080fd5b60006120bf85828601612021565b92505060206120d085828601612021565b9150509250929050565b6000806000606084860312156120ef57600080fd5b60006120fd86828701612021565b935050602061210e86828701612021565b925050604061211f8682870161204b565b9150509250925092565b6000806040838503121561213c57600080fd5b600061214a85828601612021565b925050602061215b8582860161204b565b9150509250929050565b60006020828403121561217757600080fd5b600061218584828501612036565b91505092915050565b6000602082840312156121a057600080fd5b60006121ae8482850161204b565b91505092915050565b6000602082840312156121c957600080fd5b60006121d784828501612060565b91505092915050565b6121e9816127d0565b82525050565b6121f8816127e2565b82525050565b6000612209826126f9565b6122138185612704565b9350612223818560208601612825565b61222c81612917565b840191505092915050565b6000612244602383612704565b915061224f82612928565b604082019050919050565b6000612267601283612704565b915061227282612977565b602082019050919050565b600061228a602683612704565b9150612295826129a0565b604082019050919050565b60006122ad602283612704565b91506122b8826129ef565b604082019050919050565b60006122d0601b83612704565b91506122db82612a3e565b602082019050919050565b60006122f3601e83612704565b91506122fe82612a67565b602082019050919050565b6000612316603183612704565b915061232182612a90565b604082019050919050565b6000612339600e83612704565b915061234482612adf565b602082019050919050565b600061235c602083612704565b915061236782612b08565b602082019050919050565b600061237f602183612704565b915061238a82612b31565b604082019050919050565b60006123a2601683612704565b91506123ad82612b80565b602082019050919050565b60006123c5602583612704565b91506123d082612ba9565b604082019050919050565b60006123e8602483612704565b91506123f382612bf8565b604082019050919050565b600061240b601983612704565b915061241682612c47565b602082019050919050565b600061242e601f83612704565b915061243982612c70565b602082019050919050565b61244d8161280e565b82525050565b61245c81612818565b82525050565b600060208201905061247760008301846121e0565b92915050565b600060408201905061249260008301856121e0565b61249f6020830184612444565b9392505050565b60006020820190506124bb60008301846121ef565b92915050565b600060208201905081810360008301526124db81846121fe565b905092915050565b600060208201905081810360008301526124fc81612237565b9050919050565b6000602082019050818103600083015261251c8161225a565b9050919050565b6000602082019050818103600083015261253c8161227d565b9050919050565b6000602082019050818103600083015261255c816122a0565b9050919050565b6000602082019050818103600083015261257c816122c3565b9050919050565b6000602082019050818103600083015261259c816122e6565b9050919050565b600060208201905081810360008301526125bc81612309565b9050919050565b600060208201905081810360008301526125dc8161232c565b9050919050565b600060208201905081810360008301526125fc8161234f565b9050919050565b6000602082019050818103600083015261261c81612372565b9050919050565b6000602082019050818103600083015261263c81612395565b9050919050565b6000602082019050818103600083015261265c816123b8565b9050919050565b6000602082019050818103600083015261267c816123db565b9050919050565b6000602082019050818103600083015261269c816123fe565b9050919050565b600060208201905081810360008301526126bc81612421565b9050919050565b60006020820190506126d86000830184612444565b92915050565b60006020820190506126f36000830184612453565b92915050565b600081519050919050565b600082825260208201905092915050565b60006127208261280e565b915061272b8361280e565b9250827fffffffffffffffffffffffffffffffffffffffffffffffffffffffffffffffff038211156127605761275f61288a565b5b828201905092915050565b60006127768261280e565b91506127818361280e565b925082612791576127906128b9565b5b828204905092915050565b60006127a78261280e565b91506127b28361280e565b9250828210156127c5576127c461288a565b5b828203905092915050565b60006127db826127ee565b9050919050565b60008115159050919050565b600073ffffffffffffffffffffffffffffffffffffffff82169050919050565b6000819050919050565b600060ff82169050919050565b60005b83811015612843578082015181840152602081019050612828565b83811115612852576000848401525b50505050565b6000600282049050600182168061287057607f821691505b60208210811415612884576128836128e8565b5b50919050565b7f4e487b7100000000000000000000000000000000000000000000000000000000600052601160045260246000fd5b7f4e487b7100000000000000000000000000000000000000000000000000000000600052601260045260246000fd5b7f4e487b7100000000000000000000000000000000000000000000000000000000600052602260045260246000fd5b6000601f19601f8301169050919050565b7f45524332303a207472616e7366657220746f20746865207a65726f206164647260008201527f6573730000000000000000000000000000000000000000000000000000000000602082015250565b7f4d617820537570706c7920457863656564730000000000000000000000000000600082015250565b7f4f776e61626c653a206e6577206f776e657220697320746865207a65726f206160008201527f6464726573730000000000000000000000000000000000000000000000000000602082015250565b7f45524332303a20617070726f766520746f20746865207a65726f20616464726560008201527f7373000000000000000000000000000000000000000000000000000000000000602082015250565b7f536166654d6174683a206164646974696f6e206f766572666c6f770000000000600082015250565b7f536166654d6174683a207375627472616374696f6e206f766572666c6f770000600082015250565b7f31206d6f6e746820686173206e6f742070617373656420706c6561736520747260008201527f79206166746572206f6e65206d6f6e7468000000000000000000000000000000602082015250565b7f416d6f756e742045786365656473000000000000000000000000000000000000600082015250565b7f4f776e61626c653a2063616c6c6572206973206e6f7420746865206f776e6572600082015250565b7f45524332303a206275726e2066726f6d20746865207a65726f2061646472657360008201527f7300000000000000000000000000000000000000000000000000000000000000602082015250565b7f596f7520617265206e6f7420617574686f72697a656400000000000000000000600082015250565b7f45524332303a207472616e736665722066726f6d20746865207a65726f20616460008201527f6472657373000000000000000000000000000000000000000000000000000000602082015250565b7f45524332303a20617070726f76652066726f6d20746865207a65726f2061646460008201527f7265737300000000000000000000000000000000000000000000000000000000602082015250565b7f446576656c6f706d656e74205265736572766520456d70747900000000000000600082015250565b7f45524332303a206d696e7420746f20746865207a65726f206164647265737300600082015250565b612ca2816127d0565b8114612cad57600080fd5b50565b612cb9816127e2565b8114612cc457600080fd5b50565b612cd08161280e565b8114612cdb57600080fd5b5056fe45524332303a206275726e20616d6f756e7420657863656564732062616c616e636545524332303a207472616e7366657220616d6f756e7420657863656564732062616c616e636545524332303a207472616e7366657220616d6f756e74206578636565647320616c6c6f77616e636545524332303a2064656372656173656420616c6c6f77616e63652062656c6f77207a65726fa2646970667358221220408ca0a62286065138dd332083b2f7273a506fcf92f73c0fb692b821d64a5ca564736f6c63430008020033",
  "immutableReferences": {},
  "source": "/**\r\n *Submitted for verification at Etherscan.io on 2021-04-08\r\n*/\r\n\r\n// File: @openzeppelin/contracts/token/ERC20/IERC20.sol\r\n\r\n// SPDX-License-Identifier: MIT\r\n\r\npragma solidity ^0.8.2;\r\n\r\n/**\r\n * @dev Interface of the ERC20 standard as defined in the EIP.\r\n */\r\ninterface IERC20 {\r\n    /**\r\n     * @dev Returns the amount of tokens in existence.\r\n     */\r\n    function totalSupply() external view returns (uint256);\r\n\r\n    /**\r\n     * @dev Returns the amount of tokens owned by `account`.\r\n     */\r\n    function balanceOf(address account) external view returns (uint256);\r\n\r\n    /**\r\n     * @dev Moves `amount` tokens from the caller's account to `recipient`.\r\n     *\r\n     * Returns a boolean value indicating whether the operation succeeded.\r\n     *\r\n     * Emits a {Transfer} event.\r\n     */\r\n    function transfer(address recipient, uint256 amount) external returns (bool);\r\n\r\n    /**\r\n     * @dev Returns the remaining number of tokens that `spender` will be\r\n     * allowed to spend on behalf of `owner` through {transferFrom}. This is\r\n     * zero by default.\r\n     *\r\n     * This value changes when {approve} or {transferFrom} are called.\r\n     */\r\n    function allowance(address owner, address spender) external view returns (uint256);\r\n\r\n    /**\r\n     * @dev Sets `amount` as the allowance of `spender` over the caller's tokens.\r\n     *\r\n     * Returns a boolean value indicating whether the operation succeeded.\r\n     *\r\n     * IMPORTANT: Beware that changing an allowance with this method brings the risk\r\n     * that someone may use both the old and the new allowance by unfortunate\r\n     * transaction ordering. One possible solution to mitigate this race\r\n     * condition is to first reduce the spender's allowance to 0 and set the\r\n     * desired value afterwards:\r\n     * https://github.com/ethereum/EIPs/issues/20#issuecomment-263524729\r\n     *\r\n     * Emits an {Approval} event.\r\n     */\r\n    function approve(address spender, uint256 amount) external returns (bool);\r\n\r\n    /**\r\n     * @dev Moves `amount` tokens from `sender` to `recipient` using the\r\n     * allowance mechanism. `amount` is then deducted from the caller's\r\n     * allowance.\r\n     *\r\n     * Returns a boolean value indicating whether the operation succeeded.\r\n     *\r\n     * Emits a {Transfer} event.\r\n     */\r\n    function transferFrom(address sender, address recipient, uint256 amount) external returns (bool);\r\n\r\n    /**\r\n     * @dev Emitted when `value` tokens are moved from one account (`from`) to\r\n     * another (`to`).\r\n     *\r\n     * Note that `value` may be zero.\r\n     */\r\n    event Transfer(address indexed from, address indexed to, uint256 value);\r\n\r\n    /**\r\n     * @dev Emitted when the allowance of a `spender` for an `owner` is set by\r\n     * a call to {approve}. `value` is the new allowance.\r\n     */\r\n    event Approval(address indexed owner, address indexed spender, uint256 value);\r\n}\r\n\r\n// File: @openzeppelin/contracts/utils/Context.sol\r\n\r\n\r\npragma solidity ^0.8.2;\r\n\r\n/*\r\n * @dev Provides information about the current execution context, including the\r\n * sender of the transaction and its data. While these are generally available\r\n * via msg.sender and msg.data, they should not be accessed in such a direct\r\n * manner, since when dealing with GSN meta-transactions the account sending and\r\n * paying for execution may not be the actual sender (as far as an application\r\n * is concerned).\r\n *\r\n * This contract is only required for intermediate, library-like contracts.\r\n */\r\nabstract contract Context {\r\n    function _msgSender() internal view virtual returns (address payable) {\r\n        return payable(msg.sender);\r\n    }\r\n\r\n    function _msgData() internal view virtual returns (bytes memory) {\r\n        this; // silence state mutability warning without generating bytecode - see https://github.com/ethereum/solidity/issues/2691\r\n        return msg.data;\r\n    }\r\n}\r\n\r\n// File: @openzeppelin/contracts/math/SafeMath.sol\r\n\r\n\r\npragma solidity ^0.8.2;\r\n\r\n/**\r\n * @dev Wrappers over Solidity's arithmetic operations with added overflow\r\n * checks.\r\n *\r\n * Arithmetic operations in Solidity wrap on overflow. This can easily result\r\n * in bugs, because programmers usually assume that an overflow raises an\r\n * error, which is the standard behavior in high level programming languages.\r\n * `SafeMath` restores this intuition by reverting the transaction when an\r\n * operation overflows.\r\n *\r\n * Using this library instead of the unchecked operations eliminates an entire\r\n * class of bugs, so it's recommended to use it always.\r\n */\r\nlibrary SafeMath {\r\n    /**\r\n     * @dev Returns the addition of two unsigned integers, with an overflow flag.\r\n     *\r\n     * _Available since v3.4._\r\n     */\r\n    function tryAdd(uint256 a, uint256 b) internal pure returns (bool, uint256) {\r\n        uint256 c = a + b;\r\n        if (c < a) return (false, 0);\r\n        return (true, c);\r\n    }\r\n\r\n    /**\r\n     * @dev Returns the substraction of two unsigned integers, with an overflow flag.\r\n     *\r\n     * _Available since v3.4._\r\n     */\r\n    function trySub(uint256 a, uint256 b) internal pure returns (bool, uint256) {\r\n        if (b > a) return (false, 0);\r\n        return (true, a - b);\r\n    }\r\n\r\n    /**\r\n     * @dev Returns the multiplication of two unsigned integers, with an overflow flag.\r\n     *\r\n     * _Available since v3.4._\r\n     */\r\n    function tryMul(uint256 a, uint256 b) internal pure returns (bool, uint256) {\r\n        // Gas optimization: this is cheaper than requiring 'a' not being zero, but the\r\n        // benefit is lost if 'b' is also tested.\r\n        // See: https://github.com/OpenZeppelin/openzeppelin-contracts/pull/522\r\n        if (a == 0) return (true, 0);\r\n        uint256 c = a * b;\r\n        if (c / a != b) return (false, 0);\r\n        return (true, c);\r\n    }\r\n\r\n    /**\r\n     * @dev Returns the division of two unsigned integers, with a division by zero flag.\r\n     *\r\n     * _Available since v3.4._\r\n     */\r\n    function tryDiv(uint256 a, uint256 b) internal pure returns (bool, uint256) {\r\n        if (b == 0) return (false, 0);\r\n        return (true, a / b);\r\n    }\r\n\r\n    /**\r\n     * @dev Returns the remainder of dividing two unsigned integers, with a division by zero flag.\r\n     *\r\n     * _Available since v3.4._\r\n     */\r\n    function tryMod(uint256 a, uint256 b) internal pure returns (bool, uint256) {\r\n        if (b == 0) return (false, 0);\r\n        return (true, a % b);\r\n    }\r\n\r\n    /**\r\n     * @dev Returns the addition of two unsigned integers, reverting on\r\n     * overflow.\r\n     *\r\n     * Counterpart to Solidity's `+` operator.\r\n     *\r\n     * Requirements:\r\n     *\r\n     * - Addition cannot overflow.\r\n     */\r\n    function add(uint256 a, uint256 b) internal pure returns (uint256) {\r\n        uint256 c = a + b;\r\n        require(c >= a, \"SafeMath: addition overflow\");\r\n        return c;\r\n    }\r\n\r\n    /**\r\n     * @dev Returns the subtraction of two unsigned integers, reverting on\r\n     * overflow (when the result is negative).\r\n     *\r\n     * Counterpart to Solidity's `-` operator.\r\n     *\r\n     * Requirements:\r\n     *\r\n     * - Subtraction cannot overflow.\r\n     */\r\n    function sub(uint256 a, uint256 b) internal pure returns (uint256) {\r\n        require(b <= a, \"SafeMath: subtraction overflow\");\r\n        return a - b;\r\n    }\r\n\r\n    /**\r\n     * @dev Returns the multiplication of two unsigned integers, reverting on\r\n     * overflow.\r\n     *\r\n     * Counterpart to Solidity's `*` operator.\r\n     *\r\n     * Requirements:\r\n     *\r\n     * - Multiplication cannot overflow.\r\n     */\r\n    function mul(uint256 a, uint256 b) internal pure returns (uint256) {\r\n        if (a == 0) return 0;\r\n        uint256 c = a * b;\r\n        require(c / a == b, \"SafeMath: multiplication overflow\");\r\n        return c;\r\n    }\r\n\r\n    /**\r\n     * @dev Returns the integer division of two unsigned integers, reverting on\r\n     * division by zero. The result is rounded towards zero.\r\n     *\r\n     * Counterpart to Solidity's `/` operator. Note: this function uses a\r\n     * `revert` opcode (which leaves remaining gas untouched) while Solidity\r\n     * uses an invalid opcode to revert (consuming all remaining gas).\r\n     *\r\n     * Requirements:\r\n     *\r\n     * - The divisor cannot be zero.\r\n     */\r\n    function div(uint256 a, uint256 b) internal pure returns (uint256) {\r\n        require(b > 0, \"SafeMath: division by zero\");\r\n        return a / b;\r\n    }\r\n\r\n    /**\r\n     * @dev Returns the remainder of dividing two unsigned integers. (unsigned integer modulo),\r\n     * reverting when dividing by zero.\r\n     *\r\n     * Counterpart to Solidity's `%` operator. This function uses a `revert`\r\n     * opcode (which leaves remaining gas untouched) while Solidity uses an\r\n     * invalid opcode to revert (consuming all remaining gas).\r\n     *\r\n     * Requirements:\r\n     *\r\n     * - The divisor cannot be zero.\r\n     */\r\n    function mod(uint256 a, uint256 b) internal pure returns (uint256) {\r\n        require(b > 0, \"SafeMath: modulo by zero\");\r\n        return a % b;\r\n    }\r\n\r\n    /**\r\n     * @dev Returns the subtraction of two unsigned integers, reverting with custom message on\r\n     * overflow (when the result is negative).\r\n     *\r\n     * CAUTION: This function is deprecated because it requires allocating memory for the error\r\n     * message unnecessarily. For custom revert reasons use {trySub}.\r\n     *\r\n     * Counterpart to Solidity's `-` operator.\r\n     *\r\n     * Requirements:\r\n     *\r\n     * - Subtraction cannot overflow.\r\n     */\r\n    function sub(uint256 a, uint256 b, string memory errorMessage) internal pure returns (uint256) {\r\n        require(b <= a, errorMessage);\r\n        return a - b;\r\n    }\r\n\r\n    /**\r\n     * @dev Returns the integer division of two unsigned integers, reverting with custom message on\r\n     * division by zero. The result is rounded towards zero.\r\n     *\r\n     * CAUTION: This function is deprecated because it requires allocating memory for the error\r\n     * message unnecessarily. For custom revert reasons use {tryDiv}.\r\n     *\r\n     * Counterpart to Solidity's `/` operator. Note: this function uses a\r\n     * `revert` opcode (which leaves remaining gas untouched) while Solidity\r\n     * uses an invalid opcode to revert (consuming all remaining gas).\r\n     *\r\n     * Requirements:\r\n     *\r\n     * - The divisor cannot be zero.\r\n     */\r\n    function div(uint256 a, uint256 b, string memory errorMessage) internal pure returns (uint256) {\r\n        require(b > 0, errorMessage);\r\n        return a / b;\r\n    }\r\n\r\n    /**\r\n     * @dev Returns the remainder of dividing two unsigned integers. (unsigned integer modulo),\r\n     * reverting with custom message when dividing by zero.\r\n     *\r\n     * CAUTION: This function is deprecated because it requires allocating memory for the error\r\n     * message unnecessarily. For custom revert reasons use {tryMod}.\r\n     *\r\n     * Counterpart to Solidity's `%` operator. This function uses a `revert`\r\n     * opcode (which leaves remaining gas untouched) while Solidity uses an\r\n     * invalid opcode to revert (consuming all remaining gas).\r\n     *\r\n     * Requirements:\r\n     *\r\n     * - The divisor cannot be zero.\r\n     */\r\n    function mod(uint256 a, uint256 b, string memory errorMessage) internal pure returns (uint256) {\r\n        require(b > 0, errorMessage);\r\n        return a % b;\r\n    }\r\n}\r\n\r\n// File: @openzeppelin/contracts/token/ERC20/ERC20.sol\r\n\r\n\r\npragma solidity ^0.8.2;\r\n\r\n\r\n\r\n\r\n/**\r\n * @dev Implementation of the {IERC20} interface.\r\n *\r\n * This implementation is agnostic to the way tokens are created. This means\r\n * that a supply mechanism has to be added in a derived contract using {_mint}.\r\n * For a generic mechanism see {ERC20PresetMinterPauser}.\r\n *\r\n * TIP: For a detailed writeup see our guide\r\n * https://forum.zeppelin.solutions/t/how-to-implement-erc20-supply-mechanisms/226[How\r\n * to implement supply mechanisms].\r\n *\r\n * We have followed general OpenZeppelin guidelines: functions revert instead\r\n * of returning `false` on failure. This behavior is nonetheless conventional\r\n * and does not conflict with the expectations of ERC20 applications.\r\n *\r\n * Additionally, an {Approval} event is emitted on calls to {transferFrom}.\r\n * This allows applications to reconstruct the allowance for all accounts just\r\n * by listening to said events. Other implementations of the EIP may not emit\r\n * these events, as it isn't required by the specification.\r\n *\r\n * Finally, the non-standard {decreaseAllowance} and {increaseAllowance}\r\n * functions have been added to mitigate the well-known issues around setting\r\n * allowances. See {IERC20-approve}.\r\n */\r\ncontract ERC20 is Context, IERC20 {\r\n    using SafeMath for uint256;\r\n\r\n    mapping (address => uint256) private _balances;\r\n\r\n    mapping (address => mapping (address => uint256)) private _allowances;\r\n\r\n    uint256 private _totalSupply;\r\n\r\n    string private _name;\r\n    string private _symbol;\r\n    uint8 private _decimals;\r\n\r\n    /**\r\n     * @dev Sets the values for {name} and {symbol}, initializes {decimals} with\r\n     * a default value of 18.\r\n     *\r\n     * To select a different value for {decimals}, use {_setupDecimals}.\r\n     *\r\n     * All three of these values are immutable: they can only be set once during\r\n     * construction.\r\n     */\r\n    constructor (string memory name_, string memory symbol_) public {\r\n        _name = name_;\r\n        _symbol = symbol_;\r\n        _decimals = 18;\r\n    }\r\n\r\n    /**\r\n     * @dev Returns the name of the token.\r\n     */\r\n    function name() public view virtual returns (string memory) {\r\n        return _name;\r\n    }\r\n\r\n    /**\r\n     * @dev Returns the symbol of the token, usually a shorter version of the\r\n     * name.\r\n     */\r\n    function symbol() public view virtual returns (string memory) {\r\n        return _symbol;\r\n    }\r\n\r\n    /**\r\n     * @dev Returns the number of decimals used to get its user representation.\r\n     * For example, if `decimals` equals `2`, a balance of `505` tokens should\r\n     * be displayed to a user as `5,05` (`505 / 10 ** 2`).\r\n     *\r\n     * Tokens usually opt for a value of 18, imitating the relationship between\r\n     * Ether and Wei. This is the value {ERC20} uses, unless {_setupDecimals} is\r\n     * called.\r\n     *\r\n     * NOTE: This information is only used for _display_ purposes: it in\r\n     * no way affects any of the arithmetic of the contract, including\r\n     * {IERC20-balanceOf} and {IERC20-transfer}.\r\n     */\r\n    function decimals() public view virtual returns (uint8) {\r\n        return _decimals;\r\n    }\r\n\r\n    /**\r\n     * @dev See {IERC20-totalSupply}.\r\n     */\r\n    function totalSupply() public view virtual override returns (uint256) {\r\n        return _totalSupply;\r\n    }\r\n\r\n    /**\r\n     * @dev See {IERC20-balanceOf}.\r\n     */\r\n    function balanceOf(address account) public view virtual override returns (uint256) {\r\n        return _balances[account];\r\n    }\r\n\r\n    /**\r\n     * @dev See {IERC20-transfer}.\r\n     *\r\n     * Requirements:\r\n     *\r\n     * - `recipient` cannot be the zero address.\r\n     * - the caller must have a balance of at least `amount`.\r\n     */\r\n    function transfer(address recipient, uint256 amount) public virtual override returns (bool) {\r\n        _transfer(_msgSender(), recipient, amount);\r\n        return true;\r\n    }\r\n\r\n    /**\r\n     * @dev See {IERC20-allowance}.\r\n     */\r\n    function allowance(address owner, address spender) public view virtual override returns (uint256) {\r\n        return _allowances[owner][spender];\r\n    }\r\n\r\n    /**\r\n     * @dev See {IERC20-approve}.\r\n     *\r\n     * Requirements:\r\n     *\r\n     * - `spender` cannot be the zero address.\r\n     */\r\n    function approve(address spender, uint256 amount) public virtual override returns (bool) {\r\n        _approve(_msgSender(), spender, amount);\r\n        return true;\r\n    }\r\n\r\n    /**\r\n     * @dev See {IERC20-transferFrom}.\r\n     *\r\n     * Emits an {Approval} event indicating the updated allowance. This is not\r\n     * required by the EIP. See the note at the beginning of {ERC20}.\r\n     *\r\n     * Requirements:\r\n     *\r\n     * - `sender` and `recipient` cannot be the zero address.\r\n     * - `sender` must have a balance of at least `amount`.\r\n     * - the caller must have allowance for ``sender``'s tokens of at least\r\n     * `amount`.\r\n     */\r\n    function transferFrom(address sender, address recipient, uint256 amount) public virtual override returns (bool) {\r\n        _transfer(sender, recipient, amount);\r\n        _approve(sender, _msgSender(), _allowances[sender][_msgSender()].sub(amount, \"ERC20: transfer amount exceeds allowance\"));\r\n        return true;\r\n    }\r\n\r\n    /**\r\n     * @dev Atomically increases the allowance granted to `spender` by the caller.\r\n     *\r\n     * This is an alternative to {approve} that can be used as a mitigation for\r\n     * problems described in {IERC20-approve}.\r\n     *\r\n     * Emits an {Approval} event indicating the updated allowance.\r\n     *\r\n     * Requirements:\r\n     *\r\n     * - `spender` cannot be the zero address.\r\n     */\r\n    function increaseAllowance(address spender, uint256 addedValue) public virtual returns (bool) {\r\n        _approve(_msgSender(), spender, _allowances[_msgSender()][spender].add(addedValue));\r\n        return true;\r\n    }\r\n\r\n    /**\r\n     * @dev Atomically decreases the allowance granted to `spender` by the caller.\r\n     *\r\n     * This is an alternative to {approve} that can be used as a mitigation for\r\n     * problems described in {IERC20-approve}.\r\n     *\r\n     * Emits an {Approval} event indicating the updated allowance.\r\n     *\r\n     * Requirements:\r\n     *\r\n     * - `spender` cannot be the zero address.\r\n     * - `spender` must have allowance for the caller of at least\r\n     * `subtractedValue`.\r\n     */\r\n    function decreaseAllowance(address spender, uint256 subtractedValue) public virtual returns (bool) {\r\n        _approve(_msgSender(), spender, _allowances[_msgSender()][spender].sub(subtractedValue, \"ERC20: decreased allowance below zero\"));\r\n        return true;\r\n    }\r\n\r\n    /**\r\n     * @dev Moves tokens `amount` from `sender` to `recipient`.\r\n     *\r\n     * This is internal function is equivalent to {transfer}, and can be used to\r\n     * e.g. implement automatic token fees, slashing mechanisms, etc.\r\n     *\r\n     * Emits a {Transfer} event.\r\n     *\r\n     * Requirements:\r\n     *\r\n     * - `sender` cannot be the zero address.\r\n     * - `recipient` cannot be the zero address.\r\n     * - `sender` must have a balance of at least `amount`.\r\n     */\r\n    function _transfer(address sender, address recipient, uint256 amount) internal virtual {\r\n        require(sender != address(0), \"ERC20: transfer from the zero address\");\r\n        require(recipient != address(0), \"ERC20: transfer to the zero address\");\r\n\r\n        _beforeTokenTransfer(sender, recipient, amount);\r\n\r\n        _balances[sender] = _balances[sender].sub(amount, \"ERC20: transfer amount exceeds balance\");\r\n        _balances[recipient] = _balances[recipient].add(amount);\r\n        emit Transfer(sender, recipient, amount);\r\n    }\r\n\r\n    /** @dev Creates `amount` tokens and assigns them to `account`, increasing\r\n     * the total supply.\r\n     *\r\n     * Emits a {Transfer} event with `from` set to the zero address.\r\n     *\r\n     * Requirements:\r\n     *\r\n     * - `to` cannot be the zero address.\r\n     */\r\n    function _mint(address account, uint256 amount) internal virtual {\r\n        require(account != address(0), \"ERC20: mint to the zero address\");\r\n\r\n        _beforeTokenTransfer(address(0), account, amount);\r\n\r\n        _totalSupply = _totalSupply.add(amount);\r\n        _balances[account] = _balances[account].add(amount);\r\n        emit Transfer(address(0), account, amount);\r\n    }\r\n\r\n    /**\r\n     * @dev Destroys `amount` tokens from `account`, reducing the\r\n     * total supply.\r\n     *\r\n     * Emits a {Transfer} event with `to` set to the zero address.\r\n     *\r\n     * Requirements:\r\n     *\r\n     * - `account` cannot be the zero address.\r\n     * - `account` must have at least `amount` tokens.\r\n     */\r\n    function _burn(address account, uint256 amount) internal virtual {\r\n        require(account != address(0), \"ERC20: burn from the zero address\");\r\n\r\n        _beforeTokenTransfer(account, address(0), amount);\r\n\r\n        _balances[account] = _balances[account].sub(amount, \"ERC20: burn amount exceeds balance\");\r\n        _totalSupply = _totalSupply.sub(amount);\r\n        emit Transfer(account, address(0), amount);\r\n    }\r\n\r\n    /**\r\n     * @dev Sets `amount` as the allowance of `spender` over the `owner` s tokens.\r\n     *\r\n     * This internal function is equivalent to `approve`, and can be used to\r\n     * e.g. set automatic allowances for certain subsystems, etc.\r\n     *\r\n     * Emits an {Approval} event.\r\n     *\r\n     * Requirements:\r\n     *\r\n     * - `owner` cannot be the zero address.\r\n     * - `spender` cannot be the zero address.\r\n     */\r\n    function _approve(address owner, address spender, uint256 amount) internal virtual {\r\n        require(owner != address(0), \"ERC20: approve from the zero address\");\r\n        require(spender != address(0), \"ERC20: approve to the zero address\");\r\n\r\n        _allowances[owner][spender] = amount;\r\n        emit Approval(owner, spender, amount);\r\n    }\r\n\r\n    /**\r\n     * @dev Sets {decimals} to a value other than the default one of 18.\r\n     *\r\n     * WARNING: This function should only be called from the constructor. Most\r\n     * applications that interact with token contracts will not expect\r\n     * {decimals} to ever change, and may work incorrectly if it does.\r\n     */\r\n    function _setupDecimals(uint8 decimals_) internal virtual {\r\n        _decimals = decimals_;\r\n    }\r\n\r\n    /**\r\n     * @dev Hook that is called before any transfer of tokens. This includes\r\n     * minting and burning.\r\n     *\r\n     * Calling conditions:\r\n     *\r\n     * - when `from` and `to` are both non-zero, `amount` of ``from``'s tokens\r\n     * will be to transferred to `to`.\r\n     * - when `from` is zero, `amount` tokens will be minted for `to`.\r\n     * - when `to` is zero, `amount` of ``from``'s tokens will be burned.\r\n     * - `from` and `to` are never both zero.\r\n     *\r\n     * To learn more about hooks, head to xref:ROOT:extending-contracts.adoc#using-hooks[Using Hooks].\r\n     */\r\n    function _beforeTokenTransfer(address from, address to, uint256 amount) internal virtual { }\r\n}\r\n\r\n// File: @openzeppelin/contracts/access/Ownable.sol\r\n\r\n\r\npragma solidity ^0.8.2;\r\n\r\n/**\r\n * @dev Contract module which provides a basic access control mechanism, where\r\n * there is an account (an owner) that can be granted exclusive access to\r\n * specific functions.\r\n *\r\n * By default, the owner account will be the one that deploys the contract. This\r\n * can later be changed with {transferOwnership}.\r\n *\r\n * This module is used through inheritance. It will make available the modifier\r\n * `onlyOwner`, which can be applied to your functions to restrict their use to\r\n * the owner.\r\n */\r\nabstract contract Ownable is Context {\r\n    address private _owner;\r\n\r\n    event OwnershipTransferred(address indexed previousOwner, address indexed newOwner);\r\n\r\n    /**\r\n     * @dev Initializes the contract setting the deployer as the initial owner.\r\n     */\r\n    constructor () internal {\r\n        address msgSender = _msgSender();\r\n        _owner = msgSender;\r\n        emit OwnershipTransferred(address(0), msgSender);\r\n    }\r\n\r\n    /**\r\n     * @dev Returns the address of the current owner.\r\n     */\r\n    function owner() public view virtual returns (address) {\r\n        return _owner;\r\n    }\r\n\r\n    /**\r\n     * @dev Throws if called by any account other than the owner.\r\n     */\r\n    modifier onlyOwner() {\r\n        require(owner() == _msgSender(), \"Ownable: caller is not the owner\");\r\n        _;\r\n    }\r\n\r\n    /**\r\n     * @dev Leaves the contract without owner. It will not be possible to call\r\n     * `onlyOwner` functions anymore. Can only be called by the current owner.\r\n     *\r\n     * NOTE: Renouncing ownership will leave the contract without an owner,\r\n     * thereby removing any functionality that is only available to the owner.\r\n     */\r\n    function renounceOwnership() public virtual onlyOwner {\r\n        emit OwnershipTransferred(_owner, address(0));\r\n        _owner = address(0);\r\n    }\r\n\r\n    /**\r\n     * @dev Transfers ownership of the contract to a new account (`newOwner`).\r\n     * Can only be called by the current owner.\r\n     */\r\n    function transferOwnership(address newOwner) public virtual onlyOwner {\r\n        require(newOwner != address(0), \"Ownable: new owner is the zero address\");\r\n        emit OwnershipTransferred(_owner, newOwner);\r\n        _owner = newOwner;\r\n    }\r\n}\r\n\r\n// File: contracts/Token.sol\r\n\r\npragma solidity ^0.8.2;\r\nlibrary BokkyPooBahsDateTimeLibrary {\r\n\r\n    uint constant SECONDS_PER_DAY = 24 * 60 * 60;\r\n    uint constant SECONDS_PER_HOUR = 60 * 60;\r\n    uint constant SECONDS_PER_MINUTE = 60;\r\n    int constant OFFSET19700101 = 2440588;\r\n\r\n    uint constant DOW_MON = 1;\r\n    uint constant DOW_TUE = 2;\r\n    uint constant DOW_WED = 3;\r\n    uint constant DOW_THU = 4;\r\n    uint constant DOW_FRI = 5;\r\n    uint constant DOW_SAT = 6;\r\n    uint constant DOW_SUN = 7;\r\n\r\n    // ------------------------------------------------------------------------\r\n    // Calculate the number of days from 1970/01/01 to year/month/day using\r\n    // the date conversion algorithm from\r\n    //   http://aa.usno.navy.mil/faq/docs/JD_Formula.php\r\n    // and subtracting the offset 2440588 so that 1970/01/01 is day 0\r\n    //\r\n    // days = day\r\n    //      - 32075\r\n    //      + 1461 * (year + 4800 + (month - 14) / 12) / 4\r\n    //      + 367 * (month - 2 - (month - 14) / 12 * 12) / 12\r\n    //      - 3 * ((year + 4900 + (month - 14) / 12) / 100) / 4\r\n    //      - offset\r\n    // ------------------------------------------------------------------------\r\n    function _daysFromDate(uint year, uint month, uint day) internal pure returns (uint _days) {\r\n        require(year >= 1970);\r\n        int _year = int(year);\r\n        int _month = int(month);\r\n        int _day = int(day);\r\n\r\n        int __days = _day\r\n          - 32075\r\n          + 1461 * (_year + 4800 + (_month - 14) / 12) / 4\r\n          + 367 * (_month - 2 - (_month - 14) / 12 * 12) / 12\r\n          - 3 * ((_year + 4900 + (_month - 14) / 12) / 100) / 4\r\n          - OFFSET19700101;\r\n\r\n        _days = uint(__days);\r\n    }\r\n\r\n    // ------------------------------------------------------------------------\r\n    // Calculate year/month/day from the number of days since 1970/01/01 using\r\n    // the date conversion algorithm from\r\n    //   http://aa.usno.navy.mil/faq/docs/JD_Formula.php\r\n    // and adding the offset 2440588 so that 1970/01/01 is day 0\r\n    //\r\n    // int L = days + 68569 + offset\r\n    // int N = 4 * L / 146097\r\n    // L = L - (146097 * N + 3) / 4\r\n    // year = 4000 * (L + 1) / 1461001\r\n    // L = L - 1461 * year / 4 + 31\r\n    // month = 80 * L / 2447\r\n    // dd = L - 2447 * month / 80\r\n    // L = month / 11\r\n    // month = month + 2 - 12 * L\r\n    // year = 100 * (N - 49) + year + L\r\n    // ------------------------------------------------------------------------\r\n    function _daysToDate(uint _days) internal pure returns (uint year, uint month, uint day) {\r\n        int __days = int(_days);\r\n\r\n        int L = __days + 68569 + OFFSET19700101;\r\n        int N = 4 * L / 146097;\r\n        L = L - (146097 * N + 3) / 4;\r\n        int _year = 4000 * (L + 1) / 1461001;\r\n        L = L - 1461 * _year / 4 + 31;\r\n        int _month = 80 * L / 2447;\r\n        int _day = L - 2447 * _month / 80;\r\n        L = _month / 11;\r\n        _month = _month + 2 - 12 * L;\r\n        _year = 100 * (N - 49) + _year + L;\r\n\r\n        year = uint(_year);\r\n        month = uint(_month);\r\n        day = uint(_day);\r\n    }\r\n\r\n    function timestampFromDate(uint year, uint month, uint day) internal pure returns (uint timestamp) {\r\n        timestamp = _daysFromDate(year, month, day) * SECONDS_PER_DAY;\r\n    }\r\n    function timestampFromDateTime(uint year, uint month, uint day, uint hour, uint minute, uint second) internal pure returns (uint timestamp) {\r\n        timestamp = _daysFromDate(year, month, day) * SECONDS_PER_DAY + hour * SECONDS_PER_HOUR + minute * SECONDS_PER_MINUTE + second;\r\n    }\r\n    function timestampToDate(uint timestamp) internal pure returns (uint year, uint month, uint day) {\r\n        (year, month, day) = _daysToDate(timestamp / SECONDS_PER_DAY);\r\n    }\r\n    function timestampToDateTime(uint timestamp) internal pure returns (uint year, uint month, uint day, uint hour, uint minute, uint second) {\r\n        (year, month, day) = _daysToDate(timestamp / SECONDS_PER_DAY);\r\n        uint secs = timestamp % SECONDS_PER_DAY;\r\n        hour = secs / SECONDS_PER_HOUR;\r\n        secs = secs % SECONDS_PER_HOUR;\r\n        minute = secs / SECONDS_PER_MINUTE;\r\n        second = secs % SECONDS_PER_MINUTE;\r\n    }\r\n\r\n    function isValidDate(uint year, uint month, uint day) internal pure returns (bool valid) {\r\n        if (year >= 1970 && month > 0 && month <= 12) {\r\n            uint daysInMonth = _getDaysInMonth(year, month);\r\n            if (day > 0 && day <= daysInMonth) {\r\n                valid = true;\r\n            }\r\n        }\r\n    }\r\n    function isValidDateTime(uint year, uint month, uint day, uint hour, uint minute, uint second) internal pure returns (bool valid) {\r\n        if (isValidDate(year, month, day)) {\r\n            if (hour < 24 && minute < 60 && second < 60) {\r\n                valid = true;\r\n            }\r\n        }\r\n    }\r\n    function isLeapYear(uint timestamp) internal pure returns (bool leapYear) {\r\n        (uint year,,) = _daysToDate(timestamp / SECONDS_PER_DAY);\r\n        leapYear = _isLeapYear(year);\r\n    }\r\n    function _isLeapYear(uint year) internal pure returns (bool leapYear) {\r\n        leapYear = ((year % 4 == 0) && (year % 100 != 0)) || (year % 400 == 0);\r\n    }\r\n    function isWeekDay(uint timestamp) internal pure returns (bool weekDay) {\r\n        weekDay = getDayOfWeek(timestamp) <= DOW_FRI;\r\n    }\r\n    function isWeekEnd(uint timestamp) internal pure returns (bool weekEnd) {\r\n        weekEnd = getDayOfWeek(timestamp) >= DOW_SAT;\r\n    }\r\n    function getDaysInMonth(uint timestamp) internal pure returns (uint daysInMonth) {\r\n        (uint year, uint month,) = _daysToDate(timestamp / SECONDS_PER_DAY);\r\n        daysInMonth = _getDaysInMonth(year, month);\r\n    }\r\n    function _getDaysInMonth(uint year, uint month) internal pure returns (uint daysInMonth) {\r\n        if (month == 1 || month == 3 || month == 5 || month == 7 || month == 8 || month == 10 || month == 12) {\r\n            daysInMonth = 31;\r\n        } else if (month != 2) {\r\n            daysInMonth = 30;\r\n        } else {\r\n            daysInMonth = _isLeapYear(year) ? 29 : 28;\r\n        }\r\n    }\r\n    // 1 = Monday, 7 = Sunday\r\n    function getDayOfWeek(uint timestamp) internal pure returns (uint dayOfWeek) {\r\n        uint _days = timestamp / SECONDS_PER_DAY;\r\n        dayOfWeek = (_days + 3) % 7 + 1;\r\n    }\r\n\r\n    function getYear(uint timestamp) internal pure returns (uint year) {\r\n        (year,,) = _daysToDate(timestamp / SECONDS_PER_DAY);\r\n    }\r\n    function getMonth(uint timestamp) internal pure returns (uint month) {\r\n        (,month,) = _daysToDate(timestamp / SECONDS_PER_DAY);\r\n    }\r\n    function getDay(uint timestamp) internal pure returns (uint day) {\r\n        (,,day) = _daysToDate(timestamp / SECONDS_PER_DAY);\r\n    }\r\n    function getHour(uint timestamp) internal pure returns (uint hour) {\r\n        uint secs = timestamp % SECONDS_PER_DAY;\r\n        hour = secs / SECONDS_PER_HOUR;\r\n    }\r\n    function getMinute(uint timestamp) internal pure returns (uint minute) {\r\n        uint secs = timestamp % SECONDS_PER_HOUR;\r\n        minute = secs / SECONDS_PER_MINUTE;\r\n    }\r\n    function getSecond(uint timestamp) internal pure returns (uint second) {\r\n        second = timestamp % SECONDS_PER_MINUTE;\r\n    }\r\n\r\n    function addYears(uint timestamp, uint _years) internal pure returns (uint newTimestamp) {\r\n        (uint year, uint month, uint day) = _daysToDate(timestamp / SECONDS_PER_DAY);\r\n        year += _years;\r\n        uint daysInMonth = _getDaysInMonth(year, month);\r\n        if (day > daysInMonth) {\r\n            day = daysInMonth;\r\n        }\r\n        newTimestamp = _daysFromDate(year, month, day) * SECONDS_PER_DAY + timestamp % SECONDS_PER_DAY;\r\n        require(newTimestamp >= timestamp);\r\n    }\r\n    function addMonths(uint timestamp, uint _months) internal pure returns (uint newTimestamp) {\r\n        (uint year, uint month, uint day) = _daysToDate(timestamp / SECONDS_PER_DAY);\r\n        month += _months;\r\n        year += (month - 1) / 12;\r\n        month = (month - 1) % 12 + 1;\r\n        uint daysInMonth = _getDaysInMonth(year, month);\r\n        if (day > daysInMonth) {\r\n            day = daysInMonth;\r\n        }\r\n        newTimestamp = _daysFromDate(year, month, day) * SECONDS_PER_DAY + timestamp % SECONDS_PER_DAY;\r\n        require(newTimestamp >= timestamp);\r\n    }\r\n    function addDays(uint timestamp, uint _days) internal pure returns (uint newTimestamp) {\r\n        newTimestamp = timestamp + _days * SECONDS_PER_DAY;\r\n        require(newTimestamp >= timestamp);\r\n    }\r\n    function addHours(uint timestamp, uint _hours) internal pure returns (uint newTimestamp) {\r\n        newTimestamp = timestamp + _hours * SECONDS_PER_HOUR;\r\n        require(newTimestamp >= timestamp);\r\n    }\r\n    function addMinutes(uint timestamp, uint _minutes) internal pure returns (uint newTimestamp) {\r\n        newTimestamp = timestamp + _minutes * SECONDS_PER_MINUTE;\r\n        require(newTimestamp >= timestamp);\r\n    }\r\n    function addSeconds(uint timestamp, uint _seconds) internal pure returns (uint newTimestamp) {\r\n        newTimestamp = timestamp + _seconds;\r\n        require(newTimestamp >= timestamp);\r\n    }\r\n\r\n    function subYears(uint timestamp, uint _years) internal pure returns (uint newTimestamp) {\r\n        (uint year, uint month, uint day) = _daysToDate(timestamp / SECONDS_PER_DAY);\r\n        year -= _years;\r\n        uint daysInMonth = _getDaysInMonth(year, month);\r\n        if (day > daysInMonth) {\r\n            day = daysInMonth;\r\n        }\r\n        newTimestamp = _daysFromDate(year, month, day) * SECONDS_PER_DAY + timestamp % SECONDS_PER_DAY;\r\n        require(newTimestamp <= timestamp);\r\n    }\r\n    function subMonths(uint timestamp, uint _months) internal pure returns (uint newTimestamp) {\r\n        (uint year, uint month, uint day) = _daysToDate(timestamp / SECONDS_PER_DAY);\r\n        uint yearMonth = year * 12 + (month - 1) - _months;\r\n        year = yearMonth / 12;\r\n        month = yearMonth % 12 + 1;\r\n        uint daysInMonth = _getDaysInMonth(year, month);\r\n        if (day > daysInMonth) {\r\n            day = daysInMonth;\r\n        }\r\n        newTimestamp = _daysFromDate(year, month, day) * SECONDS_PER_DAY + timestamp % SECONDS_PER_DAY;\r\n        require(newTimestamp <= timestamp);\r\n    }\r\n    function subDays(uint timestamp, uint _days) internal pure returns (uint newTimestamp) {\r\n        newTimestamp = timestamp - _days * SECONDS_PER_DAY;\r\n        require(newTimestamp <= timestamp);\r\n    }\r\n    function subHours(uint timestamp, uint _hours) internal pure returns (uint newTimestamp) {\r\n        newTimestamp = timestamp - _hours * SECONDS_PER_HOUR;\r\n        require(newTimestamp <= timestamp);\r\n    }\r\n    function subMinutes(uint timestamp, uint _minutes) internal pure returns (uint newTimestamp) {\r\n        newTimestamp = timestamp - _minutes * SECONDS_PER_MINUTE;\r\n        require(newTimestamp <= timestamp);\r\n    }\r\n    function subSeconds(uint timestamp, uint _seconds) internal pure returns (uint newTimestamp) {\r\n        newTimestamp = timestamp - _seconds;\r\n        require(newTimestamp <= timestamp);\r\n    }\r\n\r\n    function diffYears(uint fromTimestamp, uint toTimestamp) internal pure returns (uint _years) {\r\n        require(fromTimestamp <= toTimestamp);\r\n        (uint fromYear,,) = _daysToDate(fromTimestamp / SECONDS_PER_DAY);\r\n        (uint toYear,,) = _daysToDate(toTimestamp / SECONDS_PER_DAY);\r\n        _years = toYear - fromYear;\r\n    }\r\n    function diffMonths(uint fromTimestamp, uint toTimestamp) internal pure returns (uint _months) {\r\n        require(fromTimestamp <= toTimestamp);\r\n        (uint fromYear, uint fromMonth,) = _daysToDate(fromTimestamp / SECONDS_PER_DAY);\r\n        (uint toYear, uint toMonth,) = _daysToDate(toTimestamp / SECONDS_PER_DAY);\r\n        _months = toYear * 12 + toMonth - fromYear * 12 - fromMonth;\r\n    }\r\n    function diffDays(uint fromTimestamp, uint toTimestamp) internal pure returns (uint _days) {\r\n        require(fromTimestamp <= toTimestamp);\r\n        _days = (toTimestamp - fromTimestamp) / SECONDS_PER_DAY;\r\n    }\r\n    function diffHours(uint fromTimestamp, uint toTimestamp) internal pure returns (uint _hours) {\r\n        require(fromTimestamp <= toTimestamp);\r\n        _hours = (toTimestamp - fromTimestamp) / SECONDS_PER_HOUR;\r\n    }\r\n    function diffMinutes(uint fromTimestamp, uint toTimestamp) internal pure returns (uint _minutes) {\r\n        require(fromTimestamp <= toTimestamp);\r\n        _minutes = (toTimestamp - fromTimestamp) / SECONDS_PER_MINUTE;\r\n    }\r\n    function diffSeconds(uint fromTimestamp, uint toTimestamp) internal pure returns (uint _seconds) {\r\n        require(fromTimestamp <= toTimestamp);\r\n        _seconds = toTimestamp - fromTimestamp;\r\n    }\r\n}\r\n\r\n\r\ncontract Artemis is Ownable, ERC20 {\r\n    \r\n    using BokkyPooBahsDateTimeLibrary for uint;\r\n    using SafeMath for uint256;\r\n\r\n    uint public last_development_withdrawal_time;\r\n    //TOKENS ALLOTMENT\r\n    uint256 public STAKING_RESERVE =  1670000 * 10**18;\r\n    uint256 public TEAM_AND_ADVISOR_RESERVE =  240000 * 10**18;\r\n    uint256 public DEVELOPMENT_RESERVE =  200000 * 10**18;\r\n    uint256 public MARKETING_AND_LISTING_RESERVE =  400000 * 10**18;\r\n    uint256 public constant MINTABLE_SUPPLY =  7000000 * 10**18;\r\n    uint256 public TOTAL_MINTABLE_MINTED =  0;\r\n    uint256 public PARTNERSHIP_INTERGRATION_RESERVE =  490000 * 10**18;\r\n\r\n\r\n\r\n\r\n\r\n    address public stakingWallet;\r\n    address public teamWallet;\r\n    address public developmentWallet;\r\n    address public marketingWallet;\r\n    address public partnershipIntegrationWallet;\r\n\r\n\r\n\r\n    function checkTeamWalletWithdrawalEligiblity() private view returns(bool){\r\n        if(last_development_withdrawal_time ==0){\r\n            return true;\r\n        }\r\n        uint _days = BokkyPooBahsDateTimeLibrary.diffDays(last_development_withdrawal_time, block.timestamp);\r\n\r\n        if(_days>30){\r\n            return true;\r\n        }\r\n    }\r\n\r\n\r\n\r\n    function claimTeamTokens()public{\r\n        require(checkTeamWalletWithdrawalEligiblity(),\"1 month has not passed please try after one month\");\r\n\r\n        require(msg.sender == teamWallet,\"You are not authorized\");\r\n        require(TEAM_AND_ADVISOR_RESERVE >0,\"Development Reserve Empty\");\r\n        uint256 amount =  20000 * 10**18;\r\n        _mint(teamWallet, amount);\r\n        last_development_withdrawal_time = block.timestamp;\r\n        TEAM_AND_ADVISOR_RESERVE = TEAM_AND_ADVISOR_RESERVE.sub(amount);\r\n    }\r\n\r\n\r\n    function claimDevelopmentTokens()public{\r\n\r\n        \r\n         require(msg.sender == developmentWallet,\"You are not authorized\");\r\n        _mint(developmentWallet, DEVELOPMENT_RESERVE);\r\n        DEVELOPMENT_RESERVE = 0;\r\n    }\r\n\r\n    function claimMarketingTokens()public{\r\n        require(msg.sender == marketingWallet,\"You are not authorized\");\r\n        _mint(marketingWallet, MARKETING_AND_LISTING_RESERVE);\r\n        MARKETING_AND_LISTING_RESERVE = 0;\r\n\r\n    }\r\n    \r\n    \r\n     function claimPartnershipAndIntegrationTokens()public{\r\n        require(msg.sender == partnershipIntegrationWallet,\"You are not authorized\");\r\n        _mint(partnershipIntegrationWallet, PARTNERSHIP_INTERGRATION_RESERVE);\r\n        PARTNERSHIP_INTERGRATION_RESERVE = 0;\r\n\r\n    }\r\n\r\n    function claimStakingTokens()public{\r\n        require(msg.sender == stakingWallet,\"You are not authorized\");\r\n        _mint(stakingWallet, STAKING_RESERVE);\r\n        STAKING_RESERVE=0;\r\n    }\r\n\r\n\r\n\r\n    constructor(address _stakingWallet,\r\n                address _teamWallet,\r\n                address _developmentWallet,\r\n                address _marketingWallet,\r\n                address _partnershipIntegrationWallet)\r\n                 public ERC20(\"Artemis Vision\", \"ARV\") {\r\n\r\n\r\n\r\n        require(_stakingWallet != address(0),\"Zero Address not allowed\");\r\n        require(_teamWallet != address(0),\"Zero Address not allowed\");\r\n        require(_developmentWallet != address(0),\"Zero Address not allowed\");\r\n        require(_marketingWallet != address(0),\"Zero Address not allowed\");\r\n        require(_partnershipIntegrationWallet != address(0),\"Zero Address not allowed\");\r\n\r\n        stakingWallet = _stakingWallet;\r\n        teamWallet = _teamWallet;\r\n        developmentWallet = _developmentWallet;\r\n        marketingWallet = _marketingWallet;\r\n\r\n        partnershipIntegrationWallet = _partnershipIntegrationWallet;\r\n                  \r\n                     \r\n }\r\n\r\n   \r\n   \r\n   \r\n   \r\n    function mint(address account, uint256 amount) public onlyOwner {\r\n        require(TOTAL_MINTABLE_MINTED.add(amount)<=MINTABLE_SUPPLY,\"Max Supply Exceeds\");\r\n        _mint(account, amount);\r\n        TOTAL_MINTABLE_MINTED = TOTAL_MINTABLE_MINTED.add(amount);\r\n    }\r\n\r\n\r\n\r\n   \r\n    function burn(address account, uint256 amount) public onlyOwner {\r\n        _burn(account, amount);\r\n    }\r\n\r\n    function recoverERC20( uint256 tokenAmount) public virtual onlyOwner {\r\n        require(IERC20(address(this)).balanceOf(address(this)) >= tokenAmount ,\"Amount Exceeds\");\r\n        IERC20(address(this)).transfer(owner(), tokenAmount);\r\n    }\r\n}",
  "sourcePath": "/Users/mac/Desktop/Code/.extras/Artemis/artemis-presale/src/contracts/ARV.sol",
  "compiler": {
    "name": "solc",
    "version": "0.8.2+commit.661d1103.Emscripten.clang"
  },
  "schemaVersion": "3.4.3",
  "updatedAt": "2021-10-02T21:24:33.006Z",
  "networkType": "ethereum",
  "devdoc": {
    "kind": "dev",
    "methods": {
      "allowance(address,address)": {
        "details": "See {IERC20-allowance}."
      },
      "approve(address,uint256)": {
        "details": "See {IERC20-approve}. Requirements: - `spender` cannot be the zero address."
      },
      "balanceOf(address)": {
        "details": "See {IERC20-balanceOf}."
      },
      "decimals()": {
        "details": "Returns the number of decimals used to get its user representation. For example, if `decimals` equals `2`, a balance of `505` tokens should be displayed to a user as `5,05` (`505 / 10 ** 2`). Tokens usually opt for a value of 18, imitating the relationship between Ether and Wei. This is the value {ERC20} uses, unless {_setupDecimals} is called. NOTE: This information is only used for _display_ purposes: it in no way affects any of the arithmetic of the contract, including {IERC20-balanceOf} and {IERC20-transfer}."
      },
      "decreaseAllowance(address,uint256)": {
        "details": "Atomically decreases the allowance granted to `spender` by the caller. This is an alternative to {approve} that can be used as a mitigation for problems described in {IERC20-approve}. Emits an {Approval} event indicating the updated allowance. Requirements: - `spender` cannot be the zero address. - `spender` must have allowance for the caller of at least `subtractedValue`."
      },
      "increaseAllowance(address,uint256)": {
        "details": "Atomically increases the allowance granted to `spender` by the caller. This is an alternative to {approve} that can be used as a mitigation for problems described in {IERC20-approve}. Emits an {Approval} event indicating the updated allowance. Requirements: - `spender` cannot be the zero address."
      },
      "name()": {
        "details": "Returns the name of the token."
      },
      "owner()": {
        "details": "Returns the address of the current owner."
      },
      "renounceOwnership()": {
        "details": "Leaves the contract without owner. It will not be possible to call `onlyOwner` functions anymore. Can only be called by the current owner. NOTE: Renouncing ownership will leave the contract without an owner, thereby removing any functionality that is only available to the owner."
      },
      "symbol()": {
        "details": "Returns the symbol of the token, usually a shorter version of the name."
      },
      "totalSupply()": {
        "details": "See {IERC20-totalSupply}."
      },
      "transfer(address,uint256)": {
        "details": "See {IERC20-transfer}. Requirements: - `recipient` cannot be the zero address. - the caller must have a balance of at least `amount`."
      },
      "transferFrom(address,address,uint256)": {
        "details": "See {IERC20-transferFrom}. Emits an {Approval} event indicating the updated allowance. This is not required by the EIP. See the note at the beginning of {ERC20}. Requirements: - `sender` and `recipient` cannot be the zero address. - `sender` must have a balance of at least `amount`. - the caller must have allowance for ``sender``'s tokens of at least `amount`."
      },
      "transferOwnership(address)": {
        "details": "Transfers ownership of the contract to a new account (`newOwner`). Can only be called by the current owner."
      }
    },
    "version": 1
  },
  "userdoc": {
    "kind": "user",
    "methods": {},
    "version": 1
  }
}